S01400005769666953656E64546573742E7372656357
S113000019C1000037C1000035C1000033C1000030
S113001031C100002FC100002DC100002BC1000020
S113002029C1000027C1000025C1000023C1000030
S113003021C100001FC100001DC100001BC1000040
S113004019C1000017C1000015C1000013C1000050
S113005011C100000FC100000DC100000BC1000060
S113006009C1000007C1000005C1000003C1000070
S113007001C10000FFC00000FDC00000FBC0000083
S1130080A9C50000F7C00000F5C00000F3C00000DF
S113009065C50000EFC00000EDC00000EBC000002B
S11300A0E9C00000E7C00000E5C00000E3C00000B4
S11300B0E1C00000DFC00000DDC00000DBC00000C4
S11300C0D9C00000D7C00000D5C00000D3C00000D4
S11300D0D1C00000CFC00000CDC00000CBC00000E4
S11300E0C9C000006E616E00696E660000407A103F
S11300F0F35A00A0724E18090010A5D4E80000E8D5
S11301007648170000E40B54020000CA9A3B000032
S113011000E1F505000080969800000040420F00C1
S11301200000A08601000000102700000000E80382
S1130130000000006400000000000A00000000004D
S11301400100000000002C76D888DC674F0823DF0C
S1130150C1DFAE59E1B1B796E5E3E453C63AE651DF
S1130160997696E8E6C28426EB898C9B62ED407C06
S11301706FFCEFBC9C9F40F2BAA56FA5F490055AA2
S11301802AF75C936B6CF9676DC11BFCE0E40D47C7
S1130190FEF520E6B500D0ED902E030094357705EA
S11301A00080841E080000204E0A000000C80C33A2
S11301B03333330F986E12831141EF8D2114893B31
S11301C0E65516CFFEE6DB18D1844B381BF77C1DB1
S11301D0901DA4BBE424203284725E228100C9F104
S11301E024ECA1E53D276364696E6F7073757858DC
S11301F05B65666745464700616E006E66696E69B9
S1130200747900CDCCCC3D0AD7233C17B7D13877CD
S1130210CC2B329595E6241FB14F0A0000204100F3
S113022000C84200401C4620BCBE4CCA1B0E5AAE3D
S1130230C59D740011241FBECFEFD1E2DEBFCDBF38
S113024000E00CBF13E0A0E0B2E0EAEEF5E200E06B
S11302500BBF02C007900D92AC3AB107D9F724E066
S1130260ACEAB3E001C01D92AB35B207E1F7DED4CE
S11302700C94F312C5CEE1E9F0E080818D608083B7
S1130280E1E7F0E080818260808381E19AE79093E6
S1130290990080939800789498E288E10FB6F894D6
S11302A0A895809360000FBE909360000895239AF0
S11302B02B982FEF89EF90E0215080409040E1F798
S11302C000C000002B9A089523981B9904C031C0E4
S11302D0019719F42AC083E390E025E02A95F1F709
S11302E000001B99F5CF25C02150310919F4089558
S11302F02BE530E085E08A95F1F7000093B1892F72
S1130300887093FFF1CF18C01B9905C081E0089550
S1130310019719F40CC08BE590E025E02A95F1F7DC
S113032000001B99F5CF81E0089580E0089580E0F6
S113033008951B9BDDCFE8CF1B99EDCF81E0089595
S1130340DC01FC01AC014C5F5F4F20E030E0919197
S1130350290F311DE417F507D1F7332714964C9173
S113036050E081E02417350709F080E008950F93E9
S11303701F93CF93DF93EC019ADFA6DF882361F10B
S1130380DE018E010B5F1F4F61E070E0FD011C92E6
S113039027E030E01B9BFECF80E007C08F5F95E035
S11303A09A95F1F700008B3521F01B99F7CF8F3127
S11303B050F04081CB01022E02C0880F991F0A948D
S11303C0E2F7842B80832150310920F711960A1714
S11303D01B07E1F6CE01B4DFDF91CF911F910F919E
S11303E008952F923F924F925F926F927F928F92D5
S11303F09F92AF92BF92CF92DF92EF92FF920F93B0
S11304001F93CF93DF93CDB7DEB72C970FB6F89435
S1130410DEBF0FBECDBF9E838D832DB73EB73C8715
S11304202B87FC0101900020E9F731975F01A81A9E
S1130430B90ABB24A5014150510958874F838DB790
S11304409EB78A199B090FB6F8949EBF0FBE8DBF45
S1130450ADB7BEB711964D018091AC039091AD0339
S1130460A091AE03B091AF03803F984DAF4FBF4F03
S113047061F41092AC031092AD031092AE0310928B
S1130480AF0382E0809355049BC019821A821B82B9
S11304901C822F803884280C391C94012F5F3F4F15
S11304A03A87298780915504843011F410925504B9
S11304B0E5EBF3E001900020E9F73197CF01855B8C
S11304C093406C01E12CF12CC114D104E104F1043A
S11304D009F451C08FE99FE00197F1F700C00000D3
S11304E029813A814B815C812F5F3F4F4F4F5F4F92
S11304F029833A834B835C83E5EBF3E0019000208E
S1130500E9F73197CF01855B9340A0E0B0E0C816CE
S1130510D906EA06FB0679F505EB13E0412C512CCC
S113052032014F81588569857A85C4010E948C11F6
S1130530D8018D918D01F1018083A5016D817E81AA
S1130540C4010E949D11892B61F41092AC03109296
S1130550AD031092AE031092AF0381E08093550473
S11305602FC0FFEF4F1A5F0A6F0A7F0A4C145D0415
S11305706E047F04B1F68FE99FE00197F1F700C0A4
S1130580000029813A814B815C812F5F3F4F4F4F9F
S11305905F4F29833A834B835C838091AC039091B2
S11305A0AD03A091AE03B091AF03805F984DAF4F00
S11305B0BF4F281739074A075B0708F473CF59CF91
S11305C04B855C850FB6F8945EBF0FBE4DBF2C966D
S11305D00FB6F894DEBF0FBECDBFDF91CF911F9150
S11305E00F91FF90EF90DF90CF90BF90AF909F90CE
S11305F08F907F906F905F904F903F902F900895D1
S113060080EAE5EBF3E0DF011D928A95E9F71092A9
S1130610B3031092B2031092B1031092B003089581
S1130620CF93DF93EC0184E080935504CE01D9DEAF
S1130630809155048823D1F3DF91CF910895F0DFA1
S113064081E090915504923009F480E008950F936D
S11306501F93CF93DF938C01EB01D2DFC8015DD3ED
S113066088E692E05AD3CE01EADFDF91CF911F9161
S11306700F9108950F931F93CF93DF93CDB7DEB7F8
S113068064970FB6F894DEBF0FBECDBF8E010F5F27
S11306901F4F94E1F80111929A95E9F71F928F93F5
S11306A087E092E09F938F931F930F930E944A12C7
S11306B01C8A60E072E0C801CADF0F900F900F90AF
S11306C00F900F900F9064960FB6F894DEBF0FBE94
S11306D0CDBFDF91CF911F910F9108950F931F9379
S11306E0CF93DF93CDB7DEB764970FB6F894DEBF30
S11306F00FBECDBF8E010F5F1F4F94E1F801119221
S11307009A95E9F71F928F9385E192E09F938F93D7
S11307101F930F930E944A121C8A60E072E0C80182
S113072096DF0F900F900F900F900F900F9064969C
S11307300FB6F894DEBF0FBECDBFDF91CF911F91EE
S11307400F910895CF93C5E060E072E082E292E0F9
S11307507EDF811109C060E072E087E292E077DF1A
S1130760811102C0C15081F7CF9108950F931F9357
S1130770CF93DF93CDB7DEB764970FB6F894DEBF9F
S11307800FBECDBF8E010F5F1F4F94E1F801119290
S11307909A95E9F71F928F9388E392E09F938F9342
S11307A01F930F930E944A121C8A60E072E0C801F2
S11307B04EDF0F900F900F900F900F900F90649654
S11307C00FB6F894DEBF0FBECDBFDF91CF911F915E
S11307D00F9108950F931F93CF93DF93CDB7DEB797
S11307E0EC970FB6F894DEBF0FBECDBF8E010F5F3E
S11307F01F4F2CE3F80111922A95E9F77F936F9329
S11308009F938F9385E492E09F938F931F930F930D
S11308100E944A121CAE68E572E0C80118DF0FB6E8
S1130820F894DEBF0FBECDBF811122C06BE672E02B
S113083085EB93E00E94B611892BE1F464E772E042
S113084085EB93E00E94B611892BB1F46DE772E059
S113085085EB93E00E94B611892B81F466E872E07F
S113086085EB93E00E94B611892B51F485E009C011
S113087080E007C081E005C082E003C083E001C0DE
S113088084E0EC960FB6F894DEBF0FBECDBFDF91C7
S1130890CF911F910F91089560E072E08FE892E08C
S11308A0D6DE6CE972E085EB93E00E94B611892BE9
S11308B0D1F465EA72E085EB93E00E94B611892BCE
S11308C0A1F46EEA72E085EB93E00E94B611892BE5
S11308D071F467EB72E085EB93E00E94B611892B0B
S11308E041F484E0089580E0089581E0089582E071
S11308F0089583E00895DF92EF92FF920F931F9380
S1130900CF93DF93CDB7DEB7EC970FB6F894DEBF85
S11309100FBECDBFD82E162F072FF42EE52EFE01C5
S113092031968CE3DF011D928A95E9F760EC72E061
S113093089EC92E08CDE8823A1F0EF92FF920F9372
S11309401F9384ED92E09F938F93CE0101969F9322
S11309508F930E944A120FB6F894DEBF0FBECDBF2C
S113096015C0EF92FF920F931F931F92DF928EEEAA
S113097092E09F938F93CE0101969F938F930E9451
S11309804A120FB6F894DEBF0FBECDBF6DE073E020
S1130990CE0101965CDE811106C08091550482303F
S11309A021F085E003C081E001C082E0EC960FB63F
S11309B0F894DEBF0FBECDBFDF91CF911F910F9191
S11309C0FF90EF90DF900895EF92FF920F931F93A3
S11309D0CF93DF93CDB7DEB764970FB6F894DEBF3D
S11309E00FBECDBF8C01CE0101967C0184E1F701DD
S11309F011928A95E9F7F80101900020E9F7CF01F7
S1130A00801B910B01969F938F9387E193E09F93B3
S1130A108F93FF92EF920E944A121C8A65E273E060
S1130A20C70115DE6DE273E0C80111DE0F900F906F
S1130A300F900F900F900F90811106C08091550474
S1130A40823021F085E003C081E001C082E0649639
S1130A500FB6F894DEBF0FBECDBFDF91CF911F91CB
S1130A600F91FF90EF9008956DDE8823E9F383E002
S1130A707DDE80E033DE80E0FDDD0EDF833029F4AF
S1130A8069E373E082E493E0A5DE48E453E06DE4B7
S1130A9073E080E030CF0895BF92CF92DF92EF925F
S1130AA0FF920F931F93CF93DF93CDB7DEB7C65951
S1130AB0D1090FB6F894DEBF0FBECDBFC82EB92E34
S1130AC0D62E8A01E9DE833031F469E373E082E4EF
S1130AD093E080DE08C0823031F448E453E06DE4F2
S1130AE073E080E008DFCE0101967C0186E9F7011E
S1130AF011928A95E9F788E493E09F938F938DE4AC
S1130B0093E09F938F93BF92CF92F801ED0DF11D67
S1130B1081811F928F9380811F928F938BE593E045
S1130B209F938F93FF92EF920E944A12C7014CDF6A
S1130B300FB6F894DEBF0FBECDBFCA56DF4F0FB657
S1130B40F894DEBF0FBECDBFDF91CF911F910F91FF
S1130B50FF90EF90DF90CF90BF9008951F920F9277
S1130B600FB60F9211240BB60F922F938F939F936E
S1130B70EF93FF932FB7F894E091B203F091B3038E
S1130B808091CE00EB54FC4F80838091B20390910E
S1130B90B30301969093B3038093B2038091B2039D
S1130BA09091B303803A910541F41092B3031092EB
S1130BB0B2031092B1031092B0032FBFFF91EF91D3
S1130BC09F918F912F910F900BBE0F900FBE0F909E
S1130BD01F9018951F920F920FB60F9211240BB607
S1130BE00F922F933F934F935F936F937F938F93C2
S1130BF09F93AF93BF93EF93FF9386E594E0B7DBA6
S1130C008093B403A895FF91EF91BF91AF919F9109
S1130C108F917F916F915F914F913F912F910F90A1
S1130C200BBE0F900FBE0F901F901895CF93DF93BC
S1130C30CDB7DEB72A970FB6F894DEBF0FBECDBF8F
S1130C4060E072EC81E090E038D015DB0DDF02E06B
S1130C50F12C11E001C01F5F2FEF87EA91E62150CC
S1130C6080409040E1F700C00000113071F488E04A
S1130C70EBE9F3E0DE01119601900D928A95E1F71C
S1130C808091B403882339F30FC089E0E3EAF3E0E9
S1130C90DE01119601900D928A95E1F78091B403DB
S1130CA0882341F0602F01C06F2D46E554E0CE014A
S1130CB00196F2DE123078F2CCCFE8ECF0E020813D
S1130CC022602083E9ECF0E0208128692083EAECAB
S1130CD0F0E02081266020832CD120E030E040E049
S1130CE051E4B5D19B01AC0160E074E284E79BE47C
S1130CF087D020E030E040E85FE31DD00BD2E8D09D
S1130D006093CC007093CD0008958093CE00E8ECFE
S1130D10F0E0808185FFFDCF0895CF93DF93EC0150
S1130D208881882329F02196F0DF89918111FCCFF5
S1130D30DF91CF9108955058BB27AA270ED04DC1FB
S1130D403ED130F043D120F031F49F3F11F41EF432
S1130D5033C10EF4E095E7FB29C1E92F4FD180F3AD
S1130D60BA17620773078407950718F071F49EF5A4
S1130D7067C10EF4E0950B2EBA2FA02D0B01B9011B
S1130D8090010C01CA01A0011124FF27591B99F0FD
S1130D90593F50F4503E68F11A16F040A22F232F09
S1130DA0342F4427585FF3CF469537952795A79559
S1130DB0F0405395C9F77EF41F16BA0B620B730B00
S1130DC0840BBAF09150A1F0FF0FBB1F661F771F71
S1130DD0881FC2F70EC0BA0F621F731F841F48F426
S1130DE0879577956795B795F7959E3F08F0B3CFAC
S1130DF09395880F08F09927EE0F97958795089596
S1130E000CD0EBC0E3D040F0DAD030F021F45F3FF7
S1130E1019F0CCC0511115C1CFC0F0D098F399236B
S1130E20C9F35523B1F3951B550BBB27AA276217AA
S1130E307307840738F09F5F5F4F220F331F441FEF
S1130E40AA1FA9F333D00E2E3AF0E0E830D0915027
S1130E505040E695001CCAF729D0FE2F27D0660F14
S1130E60771F881FBB1F261737074807AB07B0E853
S1130E7009F0BB0B802DBF01FF2793585F4F2AF069
S1130E809E3F510568F092C0DCC05F3FECF3983E92
S1130E90DCF3869577956795B795F7959F5FC9F7C6
S1130EA0880F911D9695879597F90895E1E0660F4F
S1130EB0771F881FBB1F621773078407BA0720F0C8
S1130EC0621B730B840BBA0BEE1F88F7E095089531
S1130ED004D06894B111B5C0089598D088F09F5794
S1130EE090F0B92F9927B751A0F0D1F0660F771F72
S1130EF0881F991F1AF0BA95C9F712C0B13081F052
S1130F009FD0B1E008959CC0672F782F8827B85FE1
S1130F1039F0B93FCCF3869577956795B395D9F7B2
S1130F203EF490958095709561957F4F8F4F9F4FBC
S1130F300895E89409C097FB3EF4909580957095C8
S1130F4061957F4F8F4F9F4F9923A9F0F92F96E911
S1130F50BB279395F695879577956795B795F11186
S1130F60F8CFFAF4BB0F11F460FF1BC06F5F7F4F23
S1130F708F4F9F4F16C0882311F096E911C0772335
S1130F8021F09EE8872F762F05C0662371F096E83E
S1130F90862F70E060E02AF09A95660F771F881F0D
S1130FA0DAF7880F9695879597F9089597F99F67CB
S1130FB080E870E060E008959FEF80EC08950024DD
S1130FC00A941616170618060906089500240A94AA
S1130FD012161306140605060895092E0394000C30
S1130FE011F4882352F0BB0F40F4BF2B11F460FFBF
S1130FF004C06F5F7F4F8F4F9F4F089557FD9058E8
S1131000440F551F59F05F3F71F04795880F97FBC8
S1131010991F61F09F3F79F0879508951216130682
S11310201406551FF2CF4695F1DF08C016161706B1
S11310301806991FF1CF86957105610508940895E6
S1131040E894BB2766277727CB0197F908950BD03F
S1131050C4CFB5DF28F0BADF18F0952309F0A6CF86
S1131060ABCF1124EECFCADFA0F3959FD1F3950F38
S113107050E0551F629FF001729FBB27F00DB11D18
S1131080639FAA27F00DB11DAA1F649F6627B00DA8
S1131090A11D661F829F2227B00DA11D621F739F91
S11310A0B00DA11D621F839FA00D611D221F749F9F
S11310B03327A00D611D231F849F600D211D822FE6
S11310C0762F6A2F11249F5750408AF0E1F088232D
S11310D04AF0EE0FFF1FBB1F661F771F881F91503A
S11310E05040A9F79E3F510570F060CFAACF5F3FF3
S11310F0ECF3983EDCF3869577956795B795F7956D
S1131100E7959F5FC1F7FE2B880F911D96958795F4
S113111097F908957BDFE0F09E37D8F09639B8F45C
S11311209E3848F4672F782F8827985FF9CF8695E3
S11311307795679593959539D0F3B62FB1706B0F6A
S1131140711D811D20F4879577956795939502C04D
S11311501CC077CF882371F4772321F09850872B14
S1131160762F07C0662311F499270DC09051862B62
S113117070E060E02AF09A95660F771F881FDAF70F
S1131180880F9695879597F908959F3F31F0915070
S113119020F4879577956795B795880F911D969557
S11311A0879597F908952F923F924F925F926F928D
S11311B07F928F929F92AF92BF92CF92DF92EF92E3
S11311C0FF920F931F93CF93DF93CDB7DEB7609752
S11311D00FB6F894DEBF0FBECDBF7C011B016A01C0
S11311E0FC0117821682838181FF2BC39E012F5F2E
S11311F03F4F3901F7019381F10193FD859193FFED
S113120081911F01882309F418C3853239F493FDB1
S1131210859193FF81911F01853239F4B70190E0E4
S11312200E940E1256016501E5CF10E0512C912C5D
S1131230FFE1F915D8F08B3279F038F4803279F087
S11312408332A1F4F92DF0612EC08D3261F0803328
S113125069F4292D21602DC0392D3260932E892DFA
S11312608460982E2AC0E92DE86015C097FC2DC033
S113127020ED280F2A3088F496FE06C03AE0139F2A
S1131280200D1124122F19C08AE0589E200D11241C
S1131290522EE92DE0629E2E10C08E3231F496FC5F
S11312A0CCC2F92DF0649F2E08C08C3621F4292D70
S11312B02068922E02C0883641F4F10193FD859195
S11312C093FF81911F018111B3CF9BEB980F933052
S11312D020F4992D9061805E07C09BE9980F9330AC
S11312E008F059C1992D9F7E96FF16E09F73992EA1
S11312F0853619F49064992E08C0863621F4392F66
S11313003068932E02C01111115097FE07C01C3390
S113131050F444244394410E27E00BC0183038F0B5
S113132027E017E005C027E09CE3492E02C0212FE7
S1131330412C560184E0A80EB11CF6016081718134
S113134082819381042DA301E0D66C01F981FC878D
S1131350F0FF02C0F3FF06C091FC06C092FE06C077
S113136000E205C00DE203C00BE201C000E08C8581
S11313708C7019F0011143C280C297FE10C04C0C4E
S1131380FC85F4FF04C08A81813309F44A9414145F
S113139074F528E0241578F588E0482E2CC096FCD6
S11313A02AC0812F90E08C159D059CF03CEFC3165C
S11313B03FEFD30674F0892D8068982E0AC0E2E0CE
S11313C0F0E0EC0FFD1FE10FF11D8081803319F473
S11313D011501111F4CF97FE0EC044244394410ED2
S11313E0812F90E0C816D9062CF41C1904C044249B
S11313F0439401C010E097FE06C01C141D0434F48D
S1131400C601019605C085E090E002C081E090E04D
S113141001110196112331F0212F30E02F5F3F4F4E
S1131420820F931F252D30E08217930714F4581A66
S113143001C0512C892D897041F4552031F0B70138
S113144080E290E0EBD75A94F8CF002321F0B70163
S1131450802F90E0E3D793FC08C0552031F0B7010A
S113146080E390E0DBD75A94F8CF97FE4AC0460158
S1131470D7FE02C0812C912CC60188199909F30169
S1131480E80FF91FFE87ED87960124193109388B7F
S11314902F87012F10E01195019511093FEF831655
S11314A0930621F4B7018EE290E0B8D7C814D904AA
S11314B04CF08F8598898815990524F4ED85FE856F
S11314C0818101C080E3F1E08F1A91082D853E856A
S11314D02F5F3F4F3E872D878016910624F0B7017A
S11314E090E09CD7DBCFC814D90441F49A81963399
S11314F020F4953319F43C8534FF81E3B70190E07F
S113150048C08A81813319F09C859F7E9C87B701EE
S113151090E084D7111105C094FC16C085E690E0D4
S113152015C0B7018EE290E079D71E5F82E001E03A
S1131530080FF301E80FF11D8081B70190E06ED729
S1131540802F0113F4CFE8CF85E490E0B70166D78C
S1131550D7FC06C0C114D10441F4EC85E4FF05C0F6
S1131560D194C194D1088DE201C08BE2B70190E01F
S113157055D780E32AE0C216D1042CF08F5FFAE03D
S1131580CF1AD108F7CFB70190E048D7B701C60109
S1131590C09644D749C1833631F0833779F0833517
S11315A009F052C01FC0560132E0A30EB11CF6016F
S11315B08081898301E010E0630111C05601F2E0EB
S11315C0AF0EB11CF601C080D18096FE03C0612F1E
S11315D070E002C06FEF7FEFC601BDD68C01F92D1C
S11315E0FF7713C0560122E0A20EB11CF601C080A1
S11315F0D18096FE03C0612F70E002C06FEF7FEFD1
S1131600C60176D68C01F92DF0689F2EF3FD18C023
S1131610852D90E00817190798F4B70180E290E04F
S1131620FDD65A94F5CFF60197FC859197FE8191EA
S11316306F01B70190E0F2D651105A94015011098C
S11316400115110581F7F0C0843611F0893659F57A
S1131650560197FE09C024E0A20EB11CF601608178
S11316607181828193810AC0F2E0AF0EB11CF60150
S113167060817181072E000C880B990BF92DFF7680
S11316809F2E97FF09C090958095709561957F4F27
S11316908F4F9F4FF0689F2E2AE030E0A30142D77E
S11316A0C82EC6183EC0092D853721F40F7E2AE0C6
S11316B030E01DC0097F8F3691F018F4883559F059
S11316C0BCC0803719F0883711F0B7C0006104FF3F
S11316D009C0046007C094FE08C0066006C028E084
S11316E030E005C020E130E002C020E132E05601E4
S11316F007FF09C084E0A80EB11CF6016081718166
S11317008281938108C0F2E0AF0EB11CF6016081C2
S1131710718180E090E0A30105D7C82EC6180F7729
S1131720902E96FE0BC0092D0E7FC11650F494FE28
S11317300AC092FC08C0092D0E7E05C0DC2C092DC0
S113174003C0DC2C01C0D12E04FF0DC0FE01EC0D42
S1131750F11D8081803311F4097E09C002FF06C0A7
S1131760D394D39404C0802F867809F0D39403FDD6
S113177010C000FF06C01C2DD51478F4150D1D19DA
S11317800CC0D51450F4B70180E290E047D6D3944E
S1131790F8CFD51410F45D1801C0512C04FF0FC00C
S11317A0B70180E390E03AD602FF16C001FD03C002
S11317B088E790E002C088E590E0B7010CC0802F74
S11317C0867851F001FF02C08BE201C080E207FD80
S11317D08DE2B70190E022D6C11630F4B70180E360
S11317E090E01CD61150F8CFCA94F301EC0DF11D12
S11317F08081B70190E012D6C110F6CF15C0F4E095
S1131800F51550F584E0581A93FE1EC0011125C049
S11318102C8523FF27C004EE10E0392D3071932E60
S1131820F8018491811121C0552009F4FCCCB70141
S113183080E290E0F3D55A94F7CFF701868197813F
S113184023C08FEF9FEF20C0B70180E290E0E6D580
S11318505A945110F9CFDACF512CB701802F90E070
S1131860DDD5D6CF08EE10E0D8CF91108052B70165
S113187090E0D4D50F5F1F4FD3CF23E0251510F48C
S113188083E0C1CF512CC4CF60960FB6F894DEBF6D
S11318900FBECDBFDF91CF911F910F91FF90EF90BD
S11318A0DF90CF90BF90AF909F908F907F906F907C
S11318B05F904F903F902F90089520FD09C0FC0148
S11318C023FD05C022FF02C07383628351834083DA
S11318D0089544FD17C046FD17C0AB01BC01DA01F1
S11318E0FB01AA0FBB1FEE1FFF1F1094D1F74A0F75
S11318F05B1F6E1F7F1FCB01BA01660F771F881F06
S1131900991F09C033E001C034E0660F771F881FB8
S1131910991F3150D1F7620F711D811D911D0895DA
S11319200F931F93CF93DF938C01C80139D5EC013A
S113193097FD06C0C2D4892BC1F7B801CE01D9D511
S1131940CE01DF91CF911F910F9108958F929F92B5
S1131950AF92BF92CF92DF92EF92FF920F931F93B9
S1131960CF93DF937C018B016A01D22F19D59C019F
S113197033272B32310521F02D32310551F4D06853
S11319800150110911F480E064C0C70109D597FD25
S1131990FACFCD2FCD7F2D2F207309F58033F9F4A5
S11319A0580181E0A81AB10809F440C0C701F8D46D
S11319B097FD3CC09C012F7D33272835310549F420
S11319C0C2640250110991F1C701EAD497FF07C01C
S11319D02DC0D6FF02C0C26001C0C2618501812C46
S11319E0912C540120ED280F283078F0C4FF03C057
S11319F0B7017FD518C02A3040F0C6FFF9CF2F7D3C
S1131A003FEE320F3630A0F727504C2FC501B401FA
S1131A1060DF4B015C01C2600150110951F0C70144
S1131A20BFD497FFDFCFC1FD04C0ADCF812C912C73
S1131A305401C7FF08C0B094A09490948094811C72
S1131A40911CA11CB11C2C2FB501A401C60135DFCA
S1131A5081E0DF91CF911F910F91FF90EF90DF9084
S1131A60CF90BF90AF909F908F9008954F925F92C8
S1131A706F927F928F929F92AF92BF92CF92DF929A
S1131A80EF92FF920F931F93CF93DF93CDB7DEB7FF
S1131A90A0970FB6F894DEBF0FBECDBF5C014B011B
S1131AA07A018E010F5F1F4F680180E2F8011192E5
S1131AB08A95E9F7F501538040E050E0612C90E00D
S1131AC0712CA1E0B0E0F90153FC859153FE8191A2
S1131AD08F01482E9F01811103C080E090E094C0E3
S1131AE08E3519F44115510551F1672D70E06417D5
S1131AF075073CF48D3561F18D3219F4992311F198
S1131B0003C0992309F46BC0842D86958695869528
S1131B10F601E80FF11D842D87708D0102C0000FBE
S1131B20111F8A95E2F7C8019081892B8083641480
S1131B3059F0461410F44394E7CF4A94E5CF772440
S1131B40739403C091E001C090E04F5F5F4FBBCF3F
S1131B50992319F08E8180628E83711003C07724DB
S1131B60739419C0F6019E012F5D3F4F80818095CB
S1131B7081932E173F07D1F7F2CFE114F10431F02E
S1131B80F7018083B7016F5F7F4F7B0171E0871A94
S1131B909108712CE9F0C50103D497FD17C0FC012D
S1131BA0FF2723E0F595E7952A95E1F7EC0DFD1D58
S1131BB0208130E0AC014770552702C03595279548
S1131BC04A95E2F720FDD9CFB50193D4711085CFA2
S1131BD0E114F10411F0F7011082C80115C0682F57
S1131BE0669566956695F601E60FF11D682F677098
S1131BF08D0102C0000F111F6A95E2F7B8017081D0
S1131C00672B6083682EA1CFA0960FB6F894DEBF31
S1131C100FBECDBFDF91CF911F910F91FF90EF9039
S1131C20DF90CF90BF90AF909F908F907F906F90F8
S1131C305F904F9008952F923F924F925F926F92D0
S1131C407F929F92AF92BF92CF92DF92EF92FF92D8
S1131C500F931F93CF93DF936C018B011A01A0D3D1
S1131C60EC0199278B32910529F08D9779F430E8AE
S1131C70932E01C0912C0150110911F480E0FEC093
S1131C80C6018ED3EC0197FF02C0F8CF912CCE0190
S1131C901CD38936910531F08E36910581F5C8EF54
S1131CA0D1E002C0CBEFD1E02196FE013197B49090
S1131CB0BB20B1F00150110979F0C60171D37C0148
S1131CC097FD0AC002D39927EB2DF0E08E179F07EA
S1131CD059F3B601C7010DD4CE5FD14079F603C0E4
S1131CE0CB5FD14029F080E090E0A0E8BFE704C0DA
S1131CF080E090E0A0ECBFE7BC01CD01AFC0412C77
S1131D00512C3201E12CF12C2C2F20532A3008F5D0
S1131D10E92DE260BE2E892D887092FE06C08111E5
S1131D201FC0FFEFEF1AFF0A1BC0882319F081E0E0
S1131D30E81AF10840E2C301B201CBDD2B013C01FA
S1131D40683979498949994158F0F92DF660BF2ECF
S1131D5007C02E3F81F493FC0EC0292D2860B22EBB
S1131D600150110939F0C6011BD3EC019B2C97FFDC
S1131D70CBCF01C09B2C91FE81CFCE018F7D9927C3
S1131D808534910509F03EC0580181E0A81AB108D4
S1131D9009F474CFC60104D3EC0197FD6FCF9927E2
S1131DA08B32910529F08D9761F4E92DE0619E2E27
S1131DB05801F2E0AF1AB10809F460CFC601F0D2BD
S1131DC0EC01CE01C0970A9708F058CF8501A12CE9
S1131DD0B12CB501BB0C880B990B2C2F205340E27E
S1131DE078DD5B010150110931F0C601D9D2EC0153
S1131DF0C0970A9770F394FE03C0B194A194B108FC
S1131E00EA0CFB1C012B29F0D7FD03C0B601CE015F
S1131E1070D3C301B2018DD8F7FE06C0F194E194EA
S1131E20F108C7E1D2E002C0CFE2D2E06E0128E1BE
S1131E30C21AD10800E210E0E016F10648F0FE01F3
S1131E40259135914591549102D9E01AF10AF4CFC4
S1131E50249716950795CC16DD0671F797FE05C0F5
S1131E60DC01CB01B058BC01CD012114310429F0AF
S1131E70F101608371838283938381E0DF91CF9149
S1131E801F910F91FF90EF90DF90CF90BF90AF9094
S1131E909F907F906F905F904F903F902F90089508
S1131EA06F927F928F929F92AF92BF92CF92DF9266
S1131EB0EF92FF920F931F93CF93DF935C01EB019B
S1131EC04A01FC0117821682612CF5010381FE018F
S1131ED003FD859103FF8191182FEF01882309F4F5
S1131EE000C190E0EAD1892B19F0C50119DDEDCFCD
S1131EF0153241F4FE0103FD159103FF1191EF0129
S1131F00153271F4C5014CD297FDE9C0412F50E060
S1131F109C01332724173507C1F2B501EAD2E1C089
S1131F201A3241F403FD159103FF1191EF01772457
S1131F30739401C0712CE12CF12C20ED210F2A3077
S1131F4080F4F72DF2607F2EB70180E090E040E24C
S1131F50C0DC7B01FE0103FD159103FF1191EF012C
S1131F60ECCF71FE04C0E114F10421F4BAC0EE24F4
S1131F70EA94FE2C183619F01C3661F014C0FE01E8
S1131F8003FD159103FF1191EF01183661F4872DBC
S1131F908860782E972D9460792EFE0103FD1591AB
S1131FA003FF1191EF01112309F49BC0612F70E02D
S1131FB086EE91E092D1892B09F493C070FC07C09E
S1131FC0F401C080D180C40102964C0102C0C12C2E
S1131FD0D12C1E3649F4F5014681578160E070E04A
S1131FE0272DC6016ADC71CF1336B1F471FC03C02E
S1131FF0EE24E394F12CC501D3D197FD70C0C11434
S1132000D10429F0F6018083C60101966C0191E0A8
S1132010E91AF10881F75FC01B3551F49E01A6014E
S1132020B701C50123DDEC01892B09F054C04EC072
S1132030C50176DC97FD53C01F36C9F140F4143650
S113204091F11936B9F1183509F03AC028C013379F
S1132050A9F018F4103719F133C0153721F11837E6
S1132060F1F02EC0C114D10429F0F6010083C60199
S113207001966C0191E0E91AF10859F0C50190D17B
S11320808C0197FD06C019D1892B61F3B501C801F4
S113209030D2C114D104F9F0F60110821CC0F72D1E
S11320A0F0647F2E07C0872D8062782E03C0972DA1
S11320B09061792E272DA601B701C50147DC04C024
S11320C0A601B701C501B7DD811105C0F501838102
S11320D0807329F406C070FCF8CE6394F6CE6620B3
S11320E019F0862D90E002C08FEF9FEFDF91CF9122
S11320F01F910F91FF90EF90DF90CF90BF90AF9022
S11321009F908F907F906F900895283008F027E07B
S11321103327DA01990F311D87FD9160009661051F
S1132120710539F432602E5F3D9330E32A95E1F76F
S113213008959F3F30F080387105610509F03C5FD8
S11321403C5F3D93913008F08068911DDF93CF93FD
S11321501F930F93FF92EF92192F987F9695E92F73
S113216096959695E90FFF27EA5BFE4F992733274B
S1132170EE24FF24A701E70105900894079428F4AE
S1132180360FE71EF81E491F511D660F771F881F63
S1132190991F0694A1F70590079428F4E70EF81EFA
S11321A0491F561FC11D770F881F991F661F06946C
S11321B0A1F70590079428F4F80E491F561FC71F6E
S11321C0D11D880F991F661F771F0694A1F70590EC
S11321D0079420F4490F561FC71FD81F990F661F75
S11321E0771F881F0694A9F784911095177041F002
S11321F0D695C79557954795F794E7941A95C1F7DF
S1132200ECEEF0E0689415901591359165919591F7
S113221005907FE27395E118F10A430B560BC90B45
S1132220D009C0F7E10CF11E431F561FC91FD01D72
S11322307EF4703311F48A95E6CFE894015030F0BF
S1132240080F0AF40027021708F4202F2395022F01
S11322507A3328F079E37D932A95E9F710C07D93CA
S11322602A9589F606949795679537951795179447
S1132270E118F10A430B560BC90BD00998F02395CA
S11322807E9173957A3308F070E37C932013B8F74A
S11322907E9170617D9330F0839571E37D9370E35B
S11322A02A95E1F71124EF90FF900F911F91CF91A0
S11322B0DF91992787FD90950895911191C18032FE
S11322C019F089508550D0F70895911108958154DB
S11322D08A5108F4805E855A0895FC01059006161B
S11322E021F00020D9F7C00108953197CF01089556
S11322F0FC010590615070400110D8F780959095CD
S11323008E0F9F1F0895FB01DC0102C001900D9206
S113231041505040D8F708956817790768F4FB01D5
S1132320DC01E40FF51FA40FB51F02C002900E924A
S113233041505040D8F70895E6CFFB01DC014150ED
S1132340504030F08D910190801919F40020B9F7B4
S1132350881B990B0895FC01615070400190011095
S1132360D8F7809590958E0F9F1F0895FB0151918A
S11323705523A9F0BF01DC014D9145174111E1F747
S113238059F4CD010190002049F04D9140154111BF
S1132390C9F3FB014111EFCF81E090E0019708956B
S11323A0CF93DF93EC012B8120FF33C026FF0AC0BB
S11323B02F7B2B838E819F8101969F838E838A81BD
S11323C090E029C022FF0FC0E881F9818081082EA6
S11323D0000C990B009719F420622B831AC03196D4
S11323E0F983E8830EC0EA85FB85199597FF09C038
S11323F02B81019611F080E201C080E1822B8B8356
S113240008C02E813F812F5F3F4F3F832E83992742
S113241002C08FEF9FEFDF91CF9108950F931F9329
S1132420CF93DF93FB01238121FD03C08FEF9FEF47
S11324302CC022FF16C04681578124813581421762
S1132440530744F4A081B1819D012F5F3F4F318335
S113245020838C93268137812F5F3F4F37832683D8
S113246014C08B01EC01FB010084F185E02D19956A
S1132470892BE1F6D80116968D919C9117970196B8
S113248017969C938E931697CE01DF91CF911F914F
S11324900F9108950F931F93CF93DF93CDB7DEB7BA
S11324A02E970FB6F894DEBF0FBECDBF0E891F89DD
S11324B086E08C831A8309838FEF9FE79E838D8345
S11324C0AE01465E5F4F688D798DCE0101960E9404
S11324D0D308EF81F885E00FF11F10822E960FB616
S11324E0F894DEBF0FBECDBFDF91CF911F910F9146
S11324F00895FB01238120FF12C026FD10C08F3FE9
S11325003FEF930761F082832F7D2064238326812C
S113251037812150310937832683992708958FEF16
S11325209FEF0895FA01AA27283051F1203181F153
S1132530E8946F936E7F6E5F7F4F8F4F9F4FAF4FC7
S1132540B1E03ED0B4E03CD0670F781F891F9A1FDA
S1132550A11D680F791F8A1F911DA11D6A0F711D8E
S1132560811D911DA11D20D009F468943F912AE09A
S1132570269F11243019305D3193DEF6CF01089582
S1132580462F4770405D4193B3E00FD0C9F7F6CFB3
S1132590462F4F70405D4A3318F0495D31FD40527B
S11325A0419302D0A9F7EACFB4E0A6959795879511
S11325B077956795BA95C9F70097610571050895F0
S11325C09B01AC010A2E069457954795379527959C
S11325D0BA95C9F7620F731F841F951FA01D089534
S10D25E0992788270895F894FFCF87
S11325EA0D0A4F4B0D0A0041542B4349504D4F4499
S11325FA453D25640041542B4349504D55583D25CA
S113260A6400415445300041540041542B4349501D
S113261A434C4F53453D310041542B43574D4F448E
S113262A453D25640041542B43574A41503D2225D8
S113263A73222C22257322000D0A57494649204346
S113264A4F4E4E45435445440D0A002B43574A41C5
S113265A503A31002B43574A41503A32002B4357E0
S113266A4A41503A33002B43574A41503A340041C5
S113267A542B4349505354415455530053544154D1
S113268A55533A32005354415455533A3300535430
S113269A415455533A34005354415455533A35002E
S11326AA4349504D55583A300041542B4349504DF3
S11326BA55583F0041542B43495053544152543DB9
S11326CA22544350222C222573222C257300415470
S11326DA2B43495053544152543D222564222C22FF
S11326EA544350222C222573222C257300434F4E27
S11326FA4E4543540D0A0041542B43495053454E09
S113270A443D2564000D0A4F4B0D0A3E000D0A5341
S113271A454E44204F4B0D0A00616174353566629B
S113272A680053696D6F6E003530303000313932CC
S113273A2E3136382E34332E383300474554202F61
S113274A72656164696E67732F6164643F76616C54
S113275A75653D25642E25642673656E736F723D17
S113276A257320485454502F312E310D0A686F7343
S113277A743A2025733A25730D0A006468742D6827
S10F278A756D006468742D74656D70003A
S9030000FC
